{
  "_format": "hh-sol-artifact-1",
  "contractName": "dNFT",
  "sourceName": "contracts/dNFT.sol",
  "abi": [
    {
      "inputs": [],
      "stateMutability": "nonpayable",
      "type": "constructor"
    },
    {
      "inputs": [
        {
          "internalType": "address",
          "name": "sender",
          "type": "address"
        },
        {
          "internalType": "uint256",
          "name": "tokenId",
          "type": "uint256"
        },
        {
          "internalType": "address",
          "name": "owner",
          "type": "address"
        }
      ],
      "name": "ERC721IncorrectOwner",
      "type": "error"
    },
    {
      "inputs": [
        {
          "internalType": "address",
          "name": "operator",
          "type": "address"
        },
        {
          "internalType": "uint256",
          "name": "tokenId",
          "type": "uint256"
        }
      ],
      "name": "ERC721InsufficientApproval",
      "type": "error"
    },
    {
      "inputs": [
        {
          "internalType": "address",
          "name": "approver",
          "type": "address"
        }
      ],
      "name": "ERC721InvalidApprover",
      "type": "error"
    },
    {
      "inputs": [
        {
          "internalType": "address",
          "name": "operator",
          "type": "address"
        }
      ],
      "name": "ERC721InvalidOperator",
      "type": "error"
    },
    {
      "inputs": [
        {
          "internalType": "address",
          "name": "owner",
          "type": "address"
        }
      ],
      "name": "ERC721InvalidOwner",
      "type": "error"
    },
    {
      "inputs": [
        {
          "internalType": "address",
          "name": "receiver",
          "type": "address"
        }
      ],
      "name": "ERC721InvalidReceiver",
      "type": "error"
    },
    {
      "inputs": [
        {
          "internalType": "address",
          "name": "sender",
          "type": "address"
        }
      ],
      "name": "ERC721InvalidSender",
      "type": "error"
    },
    {
      "inputs": [
        {
          "internalType": "uint256",
          "name": "tokenId",
          "type": "uint256"
        }
      ],
      "name": "ERC721NonexistentToken",
      "type": "error"
    },
    {
      "anonymous": false,
      "inputs": [
        {
          "indexed": true,
          "internalType": "address",
          "name": "owner",
          "type": "address"
        },
        {
          "indexed": true,
          "internalType": "address",
          "name": "approved",
          "type": "address"
        },
        {
          "indexed": true,
          "internalType": "uint256",
          "name": "tokenId",
          "type": "uint256"
        }
      ],
      "name": "Approval",
      "type": "event"
    },
    {
      "anonymous": false,
      "inputs": [
        {
          "indexed": true,
          "internalType": "address",
          "name": "owner",
          "type": "address"
        },
        {
          "indexed": true,
          "internalType": "address",
          "name": "operator",
          "type": "address"
        },
        {
          "indexed": false,
          "internalType": "bool",
          "name": "approved",
          "type": "bool"
        }
      ],
      "name": "ApprovalForAll",
      "type": "event"
    },
    {
      "anonymous": false,
      "inputs": [
        {
          "indexed": true,
          "internalType": "address",
          "name": "from",
          "type": "address"
        },
        {
          "indexed": true,
          "internalType": "address",
          "name": "to",
          "type": "address"
        },
        {
          "indexed": true,
          "internalType": "uint256",
          "name": "tokenId",
          "type": "uint256"
        }
      ],
      "name": "Transfer",
      "type": "event"
    },
    {
      "anonymous": false,
      "inputs": [
        {
          "indexed": true,
          "internalType": "address",
          "name": "minter",
          "type": "address"
        }
      ],
      "name": "minterRemoved",
      "type": "event"
    },
    {
      "anonymous": false,
      "inputs": [
        {
          "indexed": true,
          "internalType": "address",
          "name": "newMinter",
          "type": "address"
        }
      ],
      "name": "newMinterAdded",
      "type": "event"
    },
    {
      "anonymous": false,
      "inputs": [
        {
          "indexed": true,
          "internalType": "address",
          "name": "prevOwner",
          "type": "address"
        },
        {
          "indexed": true,
          "internalType": "address",
          "name": "newOwner",
          "type": "address"
        }
      ],
      "name": "ownerChanged",
      "type": "event"
    },
    {
      "inputs": [
        {
          "internalType": "address",
          "name": "_add",
          "type": "address"
        }
      ],
      "name": "addMinter",
      "outputs": [],
      "stateMutability": "nonpayable",
      "type": "function"
    },
    {
      "inputs": [
        {
          "internalType": "address",
          "name": "to",
          "type": "address"
        },
        {
          "internalType": "uint256",
          "name": "tokenId",
          "type": "uint256"
        }
      ],
      "name": "approve",
      "outputs": [],
      "stateMutability": "nonpayable",
      "type": "function"
    },
    {
      "inputs": [
        {
          "internalType": "address",
          "name": "owner",
          "type": "address"
        }
      ],
      "name": "balanceOf",
      "outputs": [
        {
          "internalType": "uint256",
          "name": "",
          "type": "uint256"
        }
      ],
      "stateMutability": "view",
      "type": "function"
    },
    {
      "inputs": [
        {
          "internalType": "address",
          "name": "_newOwner",
          "type": "address"
        }
      ],
      "name": "changeOwner",
      "outputs": [],
      "stateMutability": "nonpayable",
      "type": "function"
    },
    {
      "inputs": [
        {
          "internalType": "uint256",
          "name": "tokenId",
          "type": "uint256"
        }
      ],
      "name": "getApproved",
      "outputs": [
        {
          "internalType": "address",
          "name": "",
          "type": "address"
        }
      ],
      "stateMutability": "view",
      "type": "function"
    },
    {
      "inputs": [
        {
          "internalType": "address",
          "name": "owner",
          "type": "address"
        },
        {
          "internalType": "address",
          "name": "operator",
          "type": "address"
        }
      ],
      "name": "isApprovedForAll",
      "outputs": [
        {
          "internalType": "bool",
          "name": "",
          "type": "bool"
        }
      ],
      "stateMutability": "view",
      "type": "function"
    },
    {
      "inputs": [],
      "name": "name",
      "outputs": [
        {
          "internalType": "string",
          "name": "",
          "type": "string"
        }
      ],
      "stateMutability": "view",
      "type": "function"
    },
    {
      "inputs": [
        {
          "internalType": "uint256",
          "name": "tokenId",
          "type": "uint256"
        }
      ],
      "name": "ownerOf",
      "outputs": [
        {
          "internalType": "address",
          "name": "",
          "type": "address"
        }
      ],
      "stateMutability": "view",
      "type": "function"
    },
    {
      "inputs": [
        {
          "internalType": "address",
          "name": "_remove",
          "type": "address"
        }
      ],
      "name": "removeMemebers",
      "outputs": [],
      "stateMutability": "nonpayable",
      "type": "function"
    },
    {
      "inputs": [],
      "name": "s_owner",
      "outputs": [
        {
          "internalType": "address",
          "name": "",
          "type": "address"
        }
      ],
      "stateMutability": "view",
      "type": "function"
    },
    {
      "inputs": [
        {
          "internalType": "address",
          "name": "to",
          "type": "address"
        }
      ],
      "name": "safeMint",
      "outputs": [],
      "stateMutability": "nonpayable",
      "type": "function"
    },
    {
      "inputs": [
        {
          "internalType": "address",
          "name": "from",
          "type": "address"
        },
        {
          "internalType": "address",
          "name": "to",
          "type": "address"
        },
        {
          "internalType": "uint256",
          "name": "tokenId",
          "type": "uint256"
        }
      ],
      "name": "safeTransferFrom",
      "outputs": [],
      "stateMutability": "nonpayable",
      "type": "function"
    },
    {
      "inputs": [
        {
          "internalType": "address",
          "name": "from",
          "type": "address"
        },
        {
          "internalType": "address",
          "name": "to",
          "type": "address"
        },
        {
          "internalType": "uint256",
          "name": "tokenId",
          "type": "uint256"
        },
        {
          "internalType": "bytes",
          "name": "data",
          "type": "bytes"
        }
      ],
      "name": "safeTransferFrom",
      "outputs": [],
      "stateMutability": "nonpayable",
      "type": "function"
    },
    {
      "inputs": [
        {
          "internalType": "address",
          "name": "operator",
          "type": "address"
        },
        {
          "internalType": "bool",
          "name": "approved",
          "type": "bool"
        }
      ],
      "name": "setApprovalForAll",
      "outputs": [],
      "stateMutability": "nonpayable",
      "type": "function"
    },
    {
      "inputs": [
        {
          "internalType": "string",
          "name": "_URI",
          "type": "string"
        }
      ],
      "name": "setBaseURI",
      "outputs": [],
      "stateMutability": "nonpayable",
      "type": "function"
    },
    {
      "inputs": [
        {
          "internalType": "bytes4",
          "name": "interfaceId",
          "type": "bytes4"
        }
      ],
      "name": "supportsInterface",
      "outputs": [
        {
          "internalType": "bool",
          "name": "",
          "type": "bool"
        }
      ],
      "stateMutability": "view",
      "type": "function"
    },
    {
      "inputs": [],
      "name": "symbol",
      "outputs": [
        {
          "internalType": "string",
          "name": "",
          "type": "string"
        }
      ],
      "stateMutability": "view",
      "type": "function"
    },
    {
      "inputs": [
        {
          "internalType": "uint256",
          "name": "tokenId",
          "type": "uint256"
        }
      ],
      "name": "tokenURI",
      "outputs": [
        {
          "internalType": "string",
          "name": "",
          "type": "string"
        }
      ],
      "stateMutability": "view",
      "type": "function"
    },
    {
      "inputs": [
        {
          "internalType": "address",
          "name": "from",
          "type": "address"
        },
        {
          "internalType": "address",
          "name": "to",
          "type": "address"
        },
        {
          "internalType": "uint256",
          "name": "tokenId",
          "type": "uint256"
        }
      ],
      "name": "transferFrom",
      "outputs": [],
      "stateMutability": "nonpayable",
      "type": "function"
    }
  ],
  "bytecode": "0x60806040523480156200001157600080fd5b5060405180604001604052806008815260200167446563656e74726160c01b8152506040518060400160405280600381526020016244435360e81b81525081600090816200006091906200012f565b5060016200006f82826200012f565b5050600780546001600160a01b0319163317905550620001fb565b634e487b7160e01b600052604160045260246000fd5b600181811c90821680620000b557607f821691505b602082108103620000d657634e487b7160e01b600052602260045260246000fd5b50919050565b601f8211156200012a57600081815260208120601f850160051c81016020861015620001055750805b601f850160051c820191505b81811015620001265782815560010162000111565b5050505b505050565b81516001600160401b038111156200014b576200014b6200008a565b62000163816200015c8454620000a0565b84620000dc565b602080601f8311600181146200019b5760008415620001825750858301515b600019600386901b1c1916600185901b17855562000126565b600085815260208120601f198616915b82811015620001cc57888601518255948401946001909101908401620001ab565b5085821015620001eb5787850151600019600388901b60f8161c191681555b5050505050600190811b01905550565b611fdd806200020b6000396000f3fe608060405234801561001057600080fd5b50600436106101515760003560e01c806370a08231116100cd578063a6f9dae111610081578063c87b56dd11610066578063c87b56dd146102c7578063e3978240146102da578063e985e9c5146102fa57600080fd5b8063a6f9dae1146102a1578063b88d4fde146102b457600080fd5b806395d89b41116100b257806395d89b4114610273578063983b2d561461027b578063a22cb4651461028e57600080fd5b806370a082311461023f57806380b2085f1461026057600080fd5b806323b872dd1161012457806342842e0e1161010957806342842e0e1461020657806355f804b3146102195780636352211e1461022c57600080fd5b806323b872dd146101e057806340d097c3146101f357600080fd5b806301ffc9a71461015657806306fdde031461017e578063081812fc14610193578063095ea7b3146101cb575b600080fd5b61016961016436600461194b565b610343565b60405190151581526020015b60405180910390f35b610186610354565b60405161017591906119d3565b6101a66101a13660046119e6565b6103e6565b60405173ffffffffffffffffffffffffffffffffffffffff9091168152602001610175565b6101de6101d9366004611a23565b61041c565b005b6101de6101ee366004611a4d565b61042b565b6101de610201366004611a89565b610521565b6101de610214366004611a4d565b6105fe565b6101de610227366004611b67565b61061e565b6101a661023a3660046119e6565b6106ab565b61025261024d366004611a89565b6106b6565b604051908152602001610175565b6101de61026e366004611a89565b610731565b610186610994565b6101de610289366004611a89565b6109a3565b6101de61029c366004611bb0565b610ac1565b6101de6102af366004611a89565b610acc565b6101de6102c2366004611bec565b610bc4565b6101866102d53660046119e6565b610bdb565b6007546101a69073ffffffffffffffffffffffffffffffffffffffff1681565b610169610308366004611c68565b73ffffffffffffffffffffffffffffffffffffffff918216600090815260056020908152604080832093909416825291909152205460ff1690565b600061034e82610cde565b92915050565b60606000805461036390611c9b565b80601f016020809104026020016040519081016040528092919081815260200182805461038f90611c9b565b80156103dc5780601f106103b1576101008083540402835291602001916103dc565b820191906000526020600020905b8154815290600101906020018083116103bf57829003601f168201915b5050505050905090565b60006103f182610dc1565b5060008281526004602052604090205473ffffffffffffffffffffffffffffffffffffffff1661034e565b610427828233610e20565b5050565b73ffffffffffffffffffffffffffffffffffffffff8216610480576040517f64a0ae92000000000000000000000000000000000000000000000000000000008152600060048201526024015b60405180910390fd5b600061048d838333610e2d565b90508373ffffffffffffffffffffffffffffffffffffffff168173ffffffffffffffffffffffffffffffffffffffff161461051b576040517f64283d7b00000000000000000000000000000000000000000000000000000000815273ffffffffffffffffffffffffffffffffffffffff80861660048301526024820184905282166044820152606401610477565b50505050565b60075473ffffffffffffffffffffffffffffffffffffffff1633148061054e575061054b33610f4a565b15155b6105da576040517f08c379a000000000000000000000000000000000000000000000000000000000815260206004820152602560248201527f596f7520617265206e6f7420617574686f72697a656420746f2061636365737360448201527f20746869730000000000000000000000000000000000000000000000000000006064820152608401610477565b600980549060019060006105ee8385611d1d565b909155506104279050828261105e565b61061983838360405180602001604052806000815250610bc4565b505050565b60075473ffffffffffffffffffffffffffffffffffffffff16331461069f576040517f08c379a000000000000000000000000000000000000000000000000000000000815260206004820152601560248201527f596f7520617265206e6f7420746865206f776e657200000000000000000000006044820152606401610477565b60066104278282611d7e565b600061034e82610dc1565b600073ffffffffffffffffffffffffffffffffffffffff8216610708576040517f89c62b6400000000000000000000000000000000000000000000000000000000815260006004820152602401610477565b5073ffffffffffffffffffffffffffffffffffffffff1660009081526003602052604090205490565b60075473ffffffffffffffffffffffffffffffffffffffff1633146107b2576040517f08c379a000000000000000000000000000000000000000000000000000000000815260206004820152601560248201527f596f7520617265206e6f7420746865206f776e657200000000000000000000006044820152606401610477565b60006107bd82610f4a565b905080600003610829576040517f08c379a000000000000000000000000000000000000000000000000000000000815260206004820152601560248201527f4d696e74657220646f6573206e6f7420657869737400000000000000000000006044820152606401610477565b610834600182611e98565b600854909150811061084557600080fd5b6008805461085590600190611e98565b8154811061086557610865611eab565b6000918252602090912001546008805473ffffffffffffffffffffffffffffffffffffffff909216918390811061089e5761089e611eab565b9060005260206000200160006101000a81548173ffffffffffffffffffffffffffffffffffffffff021916908373ffffffffffffffffffffffffffffffffffffffff16021790555060088054806108f7576108f7611eda565b60008281526020812082017fffffffffffffffffffffffffffffffffffffffffffffffffffffffffffffffff90810180547fffffffffffffffffffffffff000000000000000000000000000000000000000016905590910190915560405173ffffffffffffffffffffffffffffffffffffffff8416917ffd86ca22fb6c224776603564153d4d07717c367f830810319167c8aaae863a4291a25050565b60606001805461036390611c9b565b60075473ffffffffffffffffffffffffffffffffffffffff163314610a24576040517f08c379a000000000000000000000000000000000000000000000000000000000815260206004820152601560248201527f596f7520617265206e6f7420746865206f776e657200000000000000000000006044820152606401610477565b6008805460018101825560009182527ff3f7a9fe364faab93b216da50a3214154f22a0a2b415b23a84c8169e8b636ee30180547fffffffffffffffffffffffff00000000000000000000000000000000000000001673ffffffffffffffffffffffffffffffffffffffff841690811790915560405190917fa8b2d3bb534b97bc28fc4657ec57db7abfd0903cd5830587d0aff84ad49d38a191a250565b610427338383611078565b60075473ffffffffffffffffffffffffffffffffffffffff163314610b4d576040517f08c379a000000000000000000000000000000000000000000000000000000000815260206004820152601560248201527f596f7520617265206e6f7420746865206f776e657200000000000000000000006044820152606401610477565b6007805473ffffffffffffffffffffffffffffffffffffffff8381167fffffffffffffffffffffffff0000000000000000000000000000000000000000831681179093556040519116919082907f232fba693394e47cdbc6f4760e24687abfb144ddca4600a356321757a0a129fb90600090a35050565b610bcf84848461042b565b61051b84848484611175565b6060610be68261136c565b610c4c576040517f08c379a000000000000000000000000000000000000000000000000000000000815260206004820152601760248201527f546f6b656e20494420646f6573206e6f742065786973740000000000000000006044820152606401610477565b60068054610c5990611c9b565b80601f0160208091040260200160405190810160405280929190818152602001828054610c8590611c9b565b8015610cd25780601f10610ca757610100808354040283529160200191610cd2565b820191906000526020600020905b815481529060010190602001808311610cb557829003601f168201915b50505050509050919050565b60007fffffffff0000000000000000000000000000000000000000000000000000000082167f80ac58cd000000000000000000000000000000000000000000000000000000001480610d7157507fffffffff0000000000000000000000000000000000000000000000000000000082167f5b5e139f00000000000000000000000000000000000000000000000000000000145b8061034e57507f01ffc9a7000000000000000000000000000000000000000000000000000000007fffffffff0000000000000000000000000000000000000000000000000000000083161461034e565b60008181526002602052604081205473ffffffffffffffffffffffffffffffffffffffff168061034e576040517f7e27328900000000000000000000000000000000000000000000000000000000815260048101849052602401610477565b6106198383836001611396565b600080610e39846106ab565b905073ffffffffffffffffffffffffffffffffffffffff8516610eb8576040517f08c379a000000000000000000000000000000000000000000000000000000000815260206004820152601760248201527f54686973204e46542063616e2774206265206275726e740000000000000000006044820152606401610477565b73ffffffffffffffffffffffffffffffffffffffff811615610f36576040517f08c379a000000000000000000000000000000000000000000000000000000000815260206004820152601c60248201527f54686973204e4654206973206e6f6e2d7472616e7366657261626c65000000006044820152606401610477565b610f41858585611561565b50949350505050565b60075460009073ffffffffffffffffffffffffffffffffffffffff163314610fce576040517f08c379a000000000000000000000000000000000000000000000000000000000815260206004820152601560248201527f596f7520617265206e6f7420746865206f776e657200000000000000000000006044820152606401610477565b60085460005b81811015611052578373ffffffffffffffffffffffffffffffffffffffff166008828154811061100657611006611eab565b60009182526020909120015473ffffffffffffffffffffffffffffffffffffffff160361104057611038816001611d1d565b949350505050565b8061104a81611f09565b915050610fd4565b5060009150505b919050565b6104278282604051806020016040528060008152506116de565b73ffffffffffffffffffffffffffffffffffffffff82166110dd576040517f5b08ba1800000000000000000000000000000000000000000000000000000000815273ffffffffffffffffffffffffffffffffffffffff83166004820152602401610477565b73ffffffffffffffffffffffffffffffffffffffff83811660008181526005602090815260408083209487168084529482529182902080547fffffffffffffffffffffffffffffffffffffffffffffffffffffffffffffff001686151590811790915591519182527f17307eab39ab6107e8899845ad3d59bd9653f200f220920489ca2b5937696c31910160405180910390a3505050565b73ffffffffffffffffffffffffffffffffffffffff83163b1561051b576040517f150b7a0200000000000000000000000000000000000000000000000000000000815273ffffffffffffffffffffffffffffffffffffffff84169063150b7a02906111ea903390889087908790600401611f41565b6020604051808303816000875af1925050508015611243575060408051601f3d9081017fffffffffffffffffffffffffffffffffffffffffffffffffffffffffffffffe016820190925261124091810190611f8a565b60015b6112d2573d808015611271576040519150601f19603f3d011682016040523d82523d6000602084013e611276565b606091505b5080516000036112ca576040517f64a0ae9200000000000000000000000000000000000000000000000000000000815273ffffffffffffffffffffffffffffffffffffffff85166004820152602401610477565b805181602001fd5b7fffffffff0000000000000000000000000000000000000000000000000000000081167f150b7a020000000000000000000000000000000000000000000000000000000014611365576040517f64a0ae9200000000000000000000000000000000000000000000000000000000815273ffffffffffffffffffffffffffffffffffffffff85166004820152602401610477565b5050505050565b600080611378836106ab565b73ffffffffffffffffffffffffffffffffffffffff16141592915050565b80806113b7575073ffffffffffffffffffffffffffffffffffffffff821615155b1561150c5760006113c784610dc1565b905073ffffffffffffffffffffffffffffffffffffffff83161580159061141a57508273ffffffffffffffffffffffffffffffffffffffff168173ffffffffffffffffffffffffffffffffffffffff1614155b8015611459575073ffffffffffffffffffffffffffffffffffffffff80821660009081526005602090815260408083209387168352929052205460ff16155b156114a8576040517fa9fbf51f00000000000000000000000000000000000000000000000000000000815273ffffffffffffffffffffffffffffffffffffffff84166004820152602401610477565b811561150a57838573ffffffffffffffffffffffffffffffffffffffff168273ffffffffffffffffffffffffffffffffffffffff167f8c5be1e5ebec7d5bd14f71427d1e84f3dd0314c0f7b2291e5b200ac8c7c3b92560405160405180910390a45b505b5050600090815260046020526040902080547fffffffffffffffffffffffff00000000000000000000000000000000000000001673ffffffffffffffffffffffffffffffffffffffff92909216919091179055565b60008281526002602052604081205473ffffffffffffffffffffffffffffffffffffffff9081169083161561159b5761159b8184866116f5565b73ffffffffffffffffffffffffffffffffffffffff811615611611576115c5600085600080611396565b73ffffffffffffffffffffffffffffffffffffffff8116600090815260036020526040902080547fffffffffffffffffffffffffffffffffffffffffffffffffffffffffffffffff0190555b73ffffffffffffffffffffffffffffffffffffffff85161561165a5773ffffffffffffffffffffffffffffffffffffffff85166000908152600360205260409020805460010190555b60008481526002602052604080822080547fffffffffffffffffffffffff00000000000000000000000000000000000000001673ffffffffffffffffffffffffffffffffffffffff89811691821790925591518793918516917fddf252ad1be2c89b69c2b068fc378daa952ba7f163c4a11628f55a4df523b3ef91a4949350505050565b6116e883836117a5565b6106196000848484611175565b611700838383611856565b6106195773ffffffffffffffffffffffffffffffffffffffff8316611754576040517f7e27328900000000000000000000000000000000000000000000000000000000815260048101829052602401610477565b6040517f177e802f00000000000000000000000000000000000000000000000000000000815273ffffffffffffffffffffffffffffffffffffffff8316600482015260248101829052604401610477565b73ffffffffffffffffffffffffffffffffffffffff82166117f5576040517f64a0ae9200000000000000000000000000000000000000000000000000000000815260006004820152602401610477565b600061180383836000610e2d565b905073ffffffffffffffffffffffffffffffffffffffff811615610619576040517f73c6ac6e00000000000000000000000000000000000000000000000000000000815260006004820152602401610477565b600073ffffffffffffffffffffffffffffffffffffffff83161580159061103857508273ffffffffffffffffffffffffffffffffffffffff168473ffffffffffffffffffffffffffffffffffffffff1614806118e4575073ffffffffffffffffffffffffffffffffffffffff80851660009081526005602090815260408083209387168352929052205460ff165b8061103857505060009081526004602052604090205473ffffffffffffffffffffffffffffffffffffffff908116911614919050565b7fffffffff000000000000000000000000000000000000000000000000000000008116811461194857600080fd5b50565b60006020828403121561195d57600080fd5b81356119688161191a565b9392505050565b6000815180845260005b8181101561199557602081850181015186830182015201611979565b5060006020828601015260207fffffffffffffffffffffffffffffffffffffffffffffffffffffffffffffffe0601f83011685010191505092915050565b602081526000611968602083018461196f565b6000602082840312156119f857600080fd5b5035919050565b803573ffffffffffffffffffffffffffffffffffffffff8116811461105957600080fd5b60008060408385031215611a3657600080fd5b611a3f836119ff565b946020939093013593505050565b600080600060608486031215611a6257600080fd5b611a6b846119ff565b9250611a79602085016119ff565b9150604084013590509250925092565b600060208284031215611a9b57600080fd5b611968826119ff565b7f4e487b7100000000000000000000000000000000000000000000000000000000600052604160045260246000fd5b600067ffffffffffffffff80841115611aee57611aee611aa4565b604051601f85017fffffffffffffffffffffffffffffffffffffffffffffffffffffffffffffffe0908116603f01168101908282118183101715611b3457611b34611aa4565b81604052809350858152868686011115611b4d57600080fd5b858560208301376000602087830101525050509392505050565b600060208284031215611b7957600080fd5b813567ffffffffffffffff811115611b9057600080fd5b8201601f81018413611ba157600080fd5b61103884823560208401611ad3565b60008060408385031215611bc357600080fd5b611bcc836119ff565b915060208301358015158114611be157600080fd5b809150509250929050565b60008060008060808587031215611c0257600080fd5b611c0b856119ff565b9350611c19602086016119ff565b925060408501359150606085013567ffffffffffffffff811115611c3c57600080fd5b8501601f81018713611c4d57600080fd5b611c5c87823560208401611ad3565b91505092959194509250565b60008060408385031215611c7b57600080fd5b611c84836119ff565b9150611c92602084016119ff565b90509250929050565b600181811c90821680611caf57607f821691505b602082108103611ce8577f4e487b7100000000000000000000000000000000000000000000000000000000600052602260045260246000fd5b50919050565b7f4e487b7100000000000000000000000000000000000000000000000000000000600052601160045260246000fd5b8082018082111561034e5761034e611cee565b601f82111561061957600081815260208120601f850160051c81016020861015611d575750805b601f850160051c820191505b81811015611d7657828155600101611d63565b505050505050565b815167ffffffffffffffff811115611d9857611d98611aa4565b611dac81611da68454611c9b565b84611d30565b602080601f831160018114611dff5760008415611dc95750858301515b7fffffffffffffffffffffffffffffffffffffffffffffffffffffffffffffffff600386901b1c1916600185901b178555611d76565b6000858152602081207fffffffffffffffffffffffffffffffffffffffffffffffffffffffffffffffe08616915b82811015611e4c57888601518255948401946001909101908401611e2d565b5085821015611e8857878501517fffffffffffffffffffffffffffffffffffffffffffffffffffffffffffffffff600388901b60f8161c191681555b5050505050600190811b01905550565b8181038181111561034e5761034e611cee565b7f4e487b7100000000000000000000000000000000000000000000000000000000600052603260045260246000fd5b7f4e487b7100000000000000000000000000000000000000000000000000000000600052603160045260246000fd5b60007fffffffffffffffffffffffffffffffffffffffffffffffffffffffffffffffff8203611f3a57611f3a611cee565b5060010190565b600073ffffffffffffffffffffffffffffffffffffffff808716835280861660208401525083604083015260806060830152611f80608083018461196f565b9695505050505050565b600060208284031215611f9c57600080fd5b81516119688161191a56fea264697066735822122081ad00056b1d51a40065f9cfb6566261389450196d300e2e2dae11eacc7642b264736f6c63430008150033",
  "linkReferences": {},
  "deployedLinkReferences": {}
}